:20800000E0170020B5580100495801004D58010000000000000000000000000000000000F3
:20802000000000000000000000000000DFBC0000000000000000000005CB000047CC0000C2
:208040007BCA00007BCA00007BCA00007BCA00007BCA00007BCA00007BCA00007BCA0000F8
:208060007BCA00007BCA00007BCA00007BCA00007BCA0000CD2F01007BCA00007BCA000020
:208080007BCA00007BCA00007BCA00007BCA00007BCA00007BCA00007BCA00007BCA0000B8
:2080A0004D2F01007BCA00007BCA00007BCA00007BCA00007BCA00007BCA00007BCA000060
:20820000000000000000000000000000000000004A2D4C696E6B204F422D4242432D6D69B1
:2082200063726F62697420636F6D70696C6564204D617220323420323031372030393A33A8
:20824000333A333000436F7079726967687420323031362D32303136205345474745523A9F
:20826000207777772E7365676765722E636F6D000000000000000000000000000000000061
:2082800008B4024B9C4608BC6047C046A9F7FF1F10B500F09EFF0400702001F046F970211D
:2082A000200001F0D2F810BD7047F0B585B007006846002101700020C04301F0CFFE03ACAE
:2082C000CD2F06D1022103A801F048F92078617805E0032103A801F041F96078A17809027F
:2082E000401880B2C01D0490C6107400601C01F02BFF029080190190029800280CD1200027
:2083000001F036F9300001F0F9F8684606210170012101F09AF84CE03100019801F01EF942
:208320003100029801F036F9002401F053F9311A0D1B002803D0FF2DF7DD3F208543EB0071
:20834000B14204D104984007400FC01F1B186846007800280DD1B3480078012810D10198CF
:20836000021901190298001901F05AFF6946087006E0DB1DDA1000210198001902F00FF810
:20838000D52F13D02900CF2F0CD1A7484078002808D06019B04205D1019800196A4612781E
:2083A0004255491C0198001901F0ADF86419B442BBD19D4C2078002802D168460078207048
:2083C000D52F0AD001F0BDF8CF2F06D16078002803D16846007801F0A2F8029801F0DAFE5C
:2083E00005B0F0BDF0B583B0032101A801F0B6F801A805784178807800020C180120290789
:20840000090F884040100090661C300001F09CFE070009D1200001F0ABF8200001F06EF853
:20842000062001F07CF83BE0281126D12100380001F0B0F8002601F0CDF8211A8D1B00288D
:2084400003D0FF2DF7DD3F2085430098002803D06843800A02F0FFF929007019A04203D108
:20846000B81900224255491CB81901F04CF87619A642E0D101F065F80FE02100380001F058
:208480006DF80098002802D06043FFF7F9FE002038553100380000F0D8FF380001F07AFED7
:2084A00003B0F0BD1CB56C4602F092FA208002F0E5FCA07002F0E6FCE07002F0E7FC20714E
:2084C00002F0E9FC607102F0EAFCA07102F0EBFCE0710821684600F0B8FF13BD80B504203A
:2084E00001F023F8C94801F020F88020000101F01CF801BD80B5042101A000F0A6FF01BDA4
:20850000335A6AB800B589B020220021684601F046FFBF49684601F008FF68461C2101716C
:208520003C214171912181710221C171202100F08CFF09B000BD00B583B0684602F0ABFAD4
:208540000621684600F081FF03B000BD80B502F009FB00F0F0FF01BDF0B5A3B00027002659
:208560000025042101A800F0F9FF12E0400040100090FA2189000098201A01F03BFF040069
:208580002000A90002AA50506D1C761C019840080190019800281BD0C007F6D50D2E03D1EC
:2085A000022002F0EBFAECE7300002F0E7FA0400B01E022802D919380128E1D8042280211B
:2085C000684600F00DFE00980028CFD50097D0E7A90002A800F039FF23B0F0BD70B5A2B0CE
:2085E000002400250421684600F0B8FF89480021C94301AE0DE0D20706D50A00042C00DA56
:208600000268AB00F2506D1C641C009A52080092001D009A002AEED1A90001A800F015FF7E
:2086200022B070BDD9150020D215002000B583B001A800F0B5FF684600F0B2FF009800F01A
:208640005DFF03B000BD80B501F06FFD00F073FF01BD10B5C0B0802464002200002168466E
:2086600000F066FE70E0F0B585B00024E44380277F00380001F068FD050004D186204000BD
:2086800000F076FF49E0390000F068FF042102A800F064FF082103A800F060FF002239001C
:2086A000280002F01DFC0299884236D1082203A9594801F062FE00282FD100242E000122B6
:2086C000210001A800F034FE3078694609790140814220D1641C761CBC42F0D32800203095
:2086E00001F02CFE002816D0280001F027FE040011D004220021684600F01AFE0098002178
:20870000C943884201D0844205D13900280000F027FE040001D50024E443200000F00BFF61
:2087200005B0F0BD80B58020400000F021FF002000F0F5FE01BD10B5C0B080246400220092
:208740000021684600F04CFD2100684600F07DFE40B010BD10B504000422202100F040FDBD
:20876000042224212000083000F03AFD0422402120000C3000F034FD042248211034200018
:2087800000F02EFD10BDF0B589B00025ED438026B601300001F0D8FC040003D1BF4800F09D
:2087A000E7FE2DE03200002100F01AFD77093900200000F0D3FE0421684600F0CFFE08211A
:2087C00001A800F0CBFE00223900200002F088FB0099884211D1082201A90F4801F0CDFD1C
:2087E00000280AD103A8FFF7B5FF3100200000F089FD050001D50025ED43200001F0CAFC53
:20880000280000F098FE09B0F0BD0000E32E0000335A6AB898FFFF1FA08A000080B58020D0
:20882000400000F0A5FE01BDF0B5CBB00027012102A800F093FE684600F0B2FE6846007A9D
:20884000002812D06846007A022841D180277F00082103A800F082FE082203A990A001F049
:208860008CFD002804D0002013E18027BF01EFE7380001F069FC0190002801D03E0003E0E9
:20888000802676000AA80190380000F054FE00243500BE4200D93D006846007A002805D16A
:2088A0002A002100019800F09BFC04E02A002100019800F03DFD2900019800F0C6FD641969
:2088C0007F1BE5D101980AA9884200D1E4E0CDE06846007A012869D10098802189018842D8
:2088E00000D0C6E06D4801F02FFC040027D000990C3100F033FE00220099200002F0F0FA88
:2089000005000098201801F019FD854209D1082200982118091D00BF61A001F02EFD0028B5
:2089200002D00020C04306E005A8FFF713FF0099200000F0E7FC00F0FEFD200096E005A8ED
:20894000FFF708FF00F074FC00240025009E80204000864200D9060031000AA800F0FEFD7E
:208960002A0031000AA802F0BBFA0500320021000AA800F062FCA4190098801B0090E5D1B5
:208980000C210AA800F0EAFD0AA801F0D7FCA84207D108220AA9091D41A001F0EEFC002802
:2089A00002D000F045FCFF43380073E06846007A0328009863D180214900884259D1862044
:2089C000400001F0C1FB060053D000990C3100F0C5FD00220099300002F082FA0500009803
:2089E000301801F0ABFC854209D1082200983118091D00BF2AA001F0C0FC002802D0002075
:208A0000C04330E0009F002435000122210002A8401C00F08DFC28786946497A0140814272
:208A20001FD1641C6D1CBC42EFD33000203001F085FC002815D0300001F080FC040010D0FD
:208A40000422002101A800F073FC01980021C943884201D0844204D13900300000F080FCF6
:208A600001E00020C04300F066FD300001F092FB12E000980C3000F07BFD002009E0002892
:208A800001D00C3000E008200090009800F070FD0120C04300F04FFD4BB0F0BD0C20000008
:208AA000494453454747455200B583B0012101A800F054FD0090002811D168460079FE2891
:208AC00003D0FF2804D1022004E08748007801E002F036FA00900421684600F0B6FC03B0BF
:208AE00000BD80B50221684600F038FD684600887E49884202D1684600210180684601886D
:208B0000FA208000484302F0ECF801BD80B502F02DFA01BD80B502F02DFA01BD70B584B02B
:208B2000012102A800F01AFD0421684600F016FD042101A800F012FD00283BD40098019956
:208B4000014337D0019E01F0F0FAB04202D201F0ECFA0600300001F0F7FA040002D100F0D4
:208B6000B3F927E03200AA2101F019FC019D2900B54200D931006D1A6846007A642802D06A
:208B8000652806D00BE0200000F0E8FC002808D50DE000982060200000F057FC01E000F055
:208BA00093F9002DE3D10098401E0090DED1200001F0F0FA04B070BD10B582B001240121F9
:208BC00000A8401C00F0CAFC0121684600F0C6FC022000F0CDFC002813D16846407800020A
:208BE000694609780843FF21891C884205D09A49884202D09949884200D1994C200000F0A5
:208C00009AFC13BD80B50421684600F0A7FC684681780902C2781143FF22921C914205D09C
:208C20008D4A914202D08D4A914202D1007802F007FE01BD00208B490A3104220B88002BFB
:208C400000D0401C1C31521EF8D17047FFB583B00224844D0027002628000A30018800296C
:208C60001ED1F000801B80002C1804982060059860606846007E20720CA8007860726846D3
:208C8000808960817848006AE060684600F0D1FB0098206101986061300001F0DFF920E0AA
:208CA000761C1C30042ED9DB6F48006A002629000C31834B8A1E1288002A0CD00A68821A1F
:208CC0009A4208DB300002F0C2FEF000801B80002818478103E0761C1C31042EEADB641EA5
:208CE000B9D107B0F0BD0000D9150020FFFF000070B59AB0012102A800F030FC042105A851
:208D000000F02CFC042104A800F028FC012101A8C01C00F023FC012101A8801C00F01EFC2F
:208D2000022101A800F01AFC6846007A642802D065283CD05DE04B48002569468988002964
:208D40001FD160490A88521C0A8069468A80002102000A3213886C46A488A34202D100297E
:208D6000EFD503E0491C1C320429F3DB6846807900906846C379049A05998088FFF766FFDE
:208D800037E06946898802000A3213888B4209D1002D2ED4E900491B890040183249096A31
:208DA000C16026E06D1C1C32042D22DAEDE768468188002500242B4802000A3213888B429B
:208DC00045D1002C15D4E100091B890046187581B069002802D001F0DDF9B561200002F084
:208DE00036FEFFF727FF002803D101F007FE5548056006A803906846818803A801F07EFA23
:208E0000042103A801F07AFA102103A801F076FA042103A801F072FA0024124D10222900D5
:208E2000039802F0BDFE039810300390641C1C35042CF3DB01F0CCFD010003A801F065FAF7
:208E400021010C3106A800F000FB1AB070BD641C1C32042CCDDAB1E70103000001060000DB
:208E6000FF050000B80D002038F2FF1F30B583B0022100A8801C00F071FB002401AD19E01B
:208E80000221684600F06AFB022101A800F066FB0221A81C00F062FB0221281D00F05EFBAA
:208EA0000221A81D00F05AFB01A96846008802F0EEFE641C684640888442E1DB03B030BDAF
:208EC00010270000D015002072B6002002F0CCFEFAE780B5FFF7F8FF01BD80B502F03EF834
:208EE000022001F0B8FC02F03DF801BD80B502F03DF8022001F0AFFC02F03CF801BD704711
:208F000080B501F003FF01F0C1FF00F008FB01BD80B5CD20FFF7C9F901BD80B5CE20FFF716
:208F2000C4F901BD80B5CF20FFF7BFF901BD80B5314801214170314800F032FB304800F0A7
:208F4000FAFA01BD300E002080B50321684600F005FB68464178807800020818401C00F03D
:208F600087FB01BD70B50400264D2868002813D1601F0FD0C2380DD0801F022805D908385D
:208F8000012802D9C01E05D006E01F491F48007801F09CFE012028601B2C04D3BA2C01D2E2
:208FA000FFF792FF61342406A00D00BF1BA10858804700F063FB0F48006A00240025144E62
:208FC00031000C31134A8B1E1B88002B0CD00B68C31A934208DB280002F039FDE800401BD8
:208FE00080003018448170BD6D1C1C31042DEADB70BD000038F2FF1FD2150020AC0D002096
:2090000010470400300E002040420F00D9150020B80D0020C027090070470000D38E00000B
:2090200091820000DB8E0000ED8E0000DD840000E38A0000A9910000A5840000D38E0000A7
:20904000F18C00006D8E0000FF8E0000913B01002F8F0000D38E0000D38E0000D38E00005D
:20906000498F00008787000067860000D38E0000D38E000029880000D38E0000D38E0000E8
:20908000D38E0000D38E0000D38E0000D38E0000D38E0000D38E0000D38E0000D38E0000C8
:2090A0003785000059850000DD8500001D8B0000AB9E00006D9F0000319E0000A98A0000B5
:2090C000018F000091AD000031AE000065AD000001AE0000118F00001B8F0000258F000024
:2090E000D38E0000D38E0000D38E0000D38E000047860000D38E0000D38E0000D38E0000FC
:20910000D38E0000D38E000039AD0000D5AD00000D8B0000158B00005DAF000065AF0000CD
:20912000D38E000047EE0000D38E0000D38E0000D38E00006F9E00005386000025870000E4
:20914000F5840000B98B0000058C0000D38E0000D38E000005850000D38E0000E5830000AC
:209160004D850000D38E0000378700001D880000D38E0000D38E0000D38E0000D38E0000D5
:20918000D38E0000D38E0000D38E0000D38E0000D38E0000D38E00002D860000D38E000075
:2091A000504851490160704780B5504800210160012000F0B4F9642001F04DFB72B64C48DF
:2091C0004178491C417047484749016001F0CCFC01BD48480178002901D14748103070473F
:2091E000F0B506000C001500002E20D0002D1ED06019424988421AD24809844210D2001B9C
:209200002F00854200D907003A00EC2040022118300002F0C5FCF619ED1BE419002D06D0BD
:209220002A00EC2040022118300002F0B9FCF0BD80B502F0CDFD002002BDF0B5C1B00C0007
:20924000150000280AD0002D48D0070080208001844203D260192949884202D30020C04342
:209260003DE0FF2C1FD880204000061B864200D90600AE4200D92E0032003900684602F005
:209280008FFC002332006946EC204002201802F037FDBF19AD1BA419FF2C02D8002DE2D151
:2092A0001CE0002D1AD0FF20C0432418FF20801C854201D3461E00E02E003200390068465C
:2092C00002F06EFC0023320069460D48201802F017FDBF19AD1BA419002DE7D1002041B048
:2092E000F0BD000000F0FF1F21433412B40D002038F2FF1F2C0D00200082000001200000E4
:2093000000D9010038B5040007D0002901D1002032BD8025AD01A94202D00020C04332BD7F
:2093200002F056FD2A0000212000FFF786FF32BD002800D1704710B5002A10D08B18FF24CE
:20934000A41CA3420BD2631E994208D25B1A9A4200D91A00FC235B02C91802F021FC10BDD8
:2093600010B5C0B080246400A14201D1002802D10020C0430CE022000100684602F010FC22
:20938000002322006946FC20400202F0B9FC002040B010BDF8B50C0006009F4D6868002854
:2093A00004D130002A69D2699047F1BDEB68002B18D0A968CF1ABC4200D22700002F11D0EE
:2093C0003A003100C01802F0EBFBE868C119E960F619E41B1FD068682A69D269904700206D
:2093E000E86001E0002C16D0A868401EC743274007D0390030002A69D2699047F619E41B60
:2094000009D022003100E8686B68181802F0C8FBE8680019E860F1BD10B5A24C6068002816
:2094200006D12069406A8047A06000F08DFE606010BD002804D00021002206C008380160AD
:2094400070479948012101707047002900D1704780B5002809D0934A1368002B02D0FFF7F8
:2094600099FF01BD12695269904701BD38B505000C00FFF7D1FF21002800FFF78BFF31BD50
:2094800001B5FFF7C9FF04216846FFF783FF01BD30B589B004002022C9B2684600F07FFF54
:2094A000212C01D3202500E02500FFF7B5FF29006846FFF76FFF641BF2D109B030BD70B54F
:2094C00088B004002022C9B2684600F068FF754D212C01D3202600E026002868002804D0D3
:2094E00031006846FFF756FF04E0310068462A6952699047A41BEBD108B070BD80B50021A4
:20950000FFF7DDFF01BD80B5664A1368002B02D0FFF740FF01BD12699269904701BD01B5AA
:2095200001216846FFF791FF01BD01B502216846FFF78BFF01BD01B504216846FFF785FF4F
:2095400001BD10B5574C6068002803D0E168002900D0ADE02069006A804710BD80B500296E
:2095600001D1002002BD4F4A12699268904702BD50B589B00400212C01D3202600E02600E7
:2095800031006846FFF7EAFF002801D1A41BF2D109B050BD80B5434A1269D268904702BDBE
:2095A00080B50421FFF7DAFF02BD10B582B00400684600220260FFF7D1FF69460A784B78DC
:2095C0001B0213438A7812041A43C97809061143216016BD80B5334800690068804702BDA4
:2095E00010B50D4C2000143002F0FEFB02F08DFC2E48206110BD80B52A48143002F068FD7D
:2096000001BD80B5284800210170264800690069804701BD00000000D4FFFF1F80B502F078
:2096200035FD02BD10B582B0040004E002211D48143002F073FD02F029FD00280BD002F01F
:2096400020FD012807DB17481849016101212000FFF784FF16BD02F019FD0028E6D000212B
:20966000684602F0FDFC0028E0D50020C04316BD80B50C490860FFF7CFFE01BD10B5094CF1
:20968000206800280CD0401E206009D16068002803D0E168002900D00AE02069006A8047DD
:2096A00010BD0000D4FFFF1FDC1500208C5701002269526990470020E06010BDF1B58AB0CD
:2096C0000024E443082108A8FFF748FF089806900998010C0904079180B20590019000F058
:2096E00024FD0599814200D90100029108469349884202D3FF2188430290029800F024FD8A
:209700000490002803D13EE00698001906900198002801D1059C3EE006460298864200D975
:2097200006000198801B0190069F002531000498FFF730FF0395FFF74DFF311A039A8C1A3A
:20974000002803D0402CF6D33F208443002D0ED1049988180090079B220039000A98C5690D
:20976000AD68A8470500A54200D100253F19039800190390B042DED1002D02D00024E44379
:2097800001E03400C0D50198002801D0FFF7F0FE0498002802D0049800F0FCFC2000FFF779
:2097A000CAFE0BB0F0BD38B50500AC683F2084430BD0210028696A681018FFF7A4FE28699D
:2097C00000192861A868001BA86031BDF1B592B0082106A8FFF7C2FE069F0798010C0904F3
:2097E000059180B20490044611280ED300F09DFC03900498001D0399884200D2039003986E
:2098000000F0A2FC0290002803D10DA8029014200390039E361FA64205D2CD48864203D3B6
:20982000760A760200E02600CA480890802080000B900298099000200A900C9008A80190FB
:2098400002980090059B320039001298C5696D68A84705000C98012D02DA241A1FD121E055
:209860007F19641B291A0091002C0ED104990298401900F05AFD0099091D0C98029A1018F4
:20988000FFF741FEFFF75DFE0FE0029A1018FFF73AFEFFF756FEB542BBD00498051B2000B9
:2098A000FFF72CFE2800FFF746FE02980DA9884201D000F06FFC13B0F0BDF0B5D3B0040044
:2098C00005216846FFF74AFE6D46297802A8FFF745FE687800281ED0A87800280DD0CC4E0A
:2098E000316A0F182069E169096A8847002808D1306A381AF6D5002003E02069E169096A90
:2099000088471290012808DA1298012810DB28788100091D0DE0012012902B7812AA121D88
:2099200002A92069E469E468A0470028ECD51290042112A8FFF789FD53B0F0BD01100000CC
:2099400070B5D4B0060002E001A8FFF77EFD002442AD01216846FFF701FE68460078FF2837
:2099600006D0684600782870641C6D1C402CF0D1230001AA42A93069F569ED68A847A10088
:209980006A461278FF2ADFD101AA5050091D01A8FFF75BFD54B070BDF0B5D3B007000024C8
:2099A00042AE02AD0BE0042101A8FFF7D7FD68460078307001982860641C2D1D761C012120
:2099C0006846FFF7CBFD68460078FF28EBD1230002AA42A93869FC692469A047FFF7ABFD40
:2099E00053B0F0BD10B582B0040001216846FFF7B5FD684601782069E26952699047FFF7C1
:209A00009AFD13BD80B501000869C96989698847FFF791FD01BD80B501000869C969C969F8
:209A20008847FFF788FD01BD80B501000869C969096A8847FFF77FFD01BD10B584B00400D6
:209A40000020039014210291019004E06846017803A8FFF783FD01216846FFF77FFD6846DE
:209A6000007800280AD1039B019A02992069E469646AA047FFF75FFD04B010BD012100A86F
:209A8000401CFFF76BFD684640780128DED00AD3032804D007D26846017802A8D9E76846DB
:209AA000017801A8D5E768460078FFF761FDD2E710B584B0040000200390012002900190A1
:209AC00004E06846017803A8FFF748FD01216846FFF744FD6846007800281FD1039920692B
:209AE000E269926A90474A480178491C0170012000F0B1FE01992069E2695269904702980D
:209B000000F0A9FE2069E169C9698847040000F0FCFD2000FFF70FFD04B010BD012100A880
:209B2000401CFFF71BFD684640780428C9D00AD3062804D007D26846017802A8C4E76846AE
:209B4000017801A8C0E768460078FFF711FDBDE701040000A7970000FDB584B00291049D11
:209B60001035296903916846848A0C980C90AE8A06411ED02700B44200D937003A008240E8
:209B80000092029802F00CF8F61B0C98310081400191002E06D00A46009803990918286930
:209BA00001F0FEFF0198A8820098029908180290E41B1748006A6946098B40180390002CED
:209BC0001BD00C9801906846008B00906846838A029A00212868EE68B66CB047002800D528
:209BE0000020241A0C99884002990818029003980749096A401A0128E1DA0C98E882049807
:209C00005030012101706846808A001B07B0F0BD38F2FF1F30B583B00500042101A8FFF7D1
:209C20009DFC00F082FA0199814202D300F07DFA01900198052815D300F086FA04000020B3
:209C4000009000230198021F92B2211D2800FFF783FF2060011D2000FFF7F7FB200000F0BF
:209C600099FA02E00020FFF766FC03B030BDF0B585B00700082103A8FFF770FC03AC2088E9
:209C80008000E188884200DA0800001D00F05CFA0500E18809D10800FFF76AFC63480290E3
:209CA000042102A8FFF7D1FB33E0002901D0FFF755FC0026607900280AD102200090638820
:209CC0002288291D3800FFF747FF0290064614E0012810D1022038852388019060880090B1
:209CE000E0888010C01A80002A1801213869FC69A46CA04700E0BD4802900299280000F087
:209D000014FBB100091D2800FFF79FFB280000F041FA05B0F0BD10B582B004000121684625
:209D2000FFF71CFC684601782069E269D26B9047FFF701FC13BD1CB5040008216846FFF7A1
:209D40000DFC00200099012904D1019901220A43E26400E0A548FFF7EEFB13BD10B50300AE
:209D60000120002900D0BC48002B5CD05968002902D00100022008439968002902D0010047
:209D800004200843D9680C0002D00400082020431C69002C02D00400102020435C69002C9B
:209DA00002D00400202020439C69002C02D0040040202043DC69002C02D004008020204316
:209DC0001C6A002C03D004008020400020435C6A002C03D004008020800020439C6A002C39
:209DE00003D004008020C0002043DC6B002C03D00400802040012043002903D0010080209E
:209E000080010843996C002903D001009020C001084301008020400208435B6C190002D0D8
:209E2000010010009847FFF786FB10BDF9FEFFFF00B583B0012100A8401CFFF78FFB012149
:209E40006846FFF78BFB0220FFF792FB00280CD101A96846407800026A461278104301F09E
:209E6000A1FD00220199FFF779FF03B000BD00B583B0012100A8401CFFF770FB012168466B
:209E8000FFF76CFB042102A8FFF768FB01A96846407800026A461278104301F083FD029A91
:209EA0000199FFF75BFF03B000BD70B598B05422002101A800F073FA012100A8801CFFF7E2
:209EC0004DFB01AD04E06846017801A8FFF76DFB01216846FFF742FB68460078002806D152
:209EE00001A96846807801F0DBFD18B070BD012100A8401CFFF732FB684640780728E2D0C4
:209F000031D3092809D002D30A280AD02BE068460178281DFFF722FBDAE768460178681D5B
:209F2000F8E768460078082802D26846047800E00824210028000830FFF710FB684600783A
:209F4000061BC5D0300000F0FFF80690002804D03100FFF703FB0796BAE768460078001BFE
:209F6000FFF706FBB4E768460078F9E770B582B002216846FFF7F2FA6846467800785421E6
:209F80004143414A541804282CDA25001035E968002927D0112E25D2C100081A80003B491C
:209FA00008183B49096AC1602868002802D1200001F018FD502001212154E868C26CB00083
:209FC00035A10E5810000AD00121286890472000B04700212868EA68D26C904773BD200053
:209FE000B04773BDFFF72DFA73BD0000FAFEFFFFF8B501200090244F3C00244D0C355137B0
:20A000000426206900281FD05020205C00281BD03878002818D128681E4940181C49096A8F
:20A02000401A012810DB200002F0FEF9002800D1009020001030C068016D080004D020002E
:20A040008847002800D10090543454371C35761ED7D10098F2BD0000010000400100401C23
:20A060000022D243914201D10021042054224A43054B9A181369002B02D050320023137019
:20A08000491C8142F2DB7047340E0020B80D002038F2FF1F10270000CD970000BD96000097
:20A0A0004199000099990000E5990000059A0000179A0000299A00003B9A0000B19A0000E3
:20A0C000159C0000179D0000BB9800006F9C0000000000001DC80000379D000018B4002216
:20A0E000426001602A490A68002A02D1086011BC70470A0000E0221D1468002C01D0A0420B
:20A10000F9D24460106008680028F0D000E0080041680029EBD0026883188B42F7D14B6846
:20A120004360096851180160F2E700201849096804E00A68904200D2100049680029F8D1C9
:20A14000002800D00838704718B401000020C91D0722914308310E4A00E01A1D1368002BF2
:20A1600014D01C68A14208D218005B1813600268521A1A6042685A6004E08C42EDD1180080
:20A180005B681360002801D00160083012BC7047D0FFFF1F002800D1704780B508380168F7
:20A1A000FFF79CFF01BD80B5CA1D07218A430832083801680260891A8018FFF78FFF01BD7D
:20A1C00010B504002068FFF7E5FF0020206010BD80B507229143FFF781FF01BD10B50400B8
:20A1E0000800DB0002E010B504000800210002F0B3FB002010BD0020704710B41B48C168F4
:20A2000040229143C1601A49AA2252004A6020230360C4682343C3600A60002010BC704754
:20A2200010B5144C24686468A04710BD12490160182181807047000080B501000F488142F0
:20A2400000D301000C484A005118490002F0FEFB001F01D50020C0430949086009480028A4
:20A2600001D0FFF7CAFF00BF07A002BD88F00F4014B0044034F3FF1F006CDC0240420F003A
:20A28000ACFFFF1FFBA10000DDA10000E7A10000F7A1000000000000FBA10000000000001F
:20A2A00001680A060B0A1B061B0A13430A02120E12021A43090E1143016070470106020A41
:20A2C0001206120A0A430102090E09021143000E08437047CA0882184807400F9107C90EFB
:20A2E0004118032082431068002906D0C840030050682022511A8840184370470268117071
:20A30000090A5170921C0260704702681170090A5170090A9170090AD170121D0260704733
:20A320000170401C090A017070470170090A4170090A8170C01C090A017070470178427892
:20A3400012020A43817809041143C0780006084370470278401C412A02DB5B2A00DA203233
:20A360000B78491C412B02DB5B2B00DA2033002A01D09A42EDD0D01A704718B4012A0BDBE7
:20A380000300401C0C00491C1B782478A34201D0012002E0521EF3D1002012BC7047012A01
:20A3A00003DB0170401C521EFBD1704778B403000020002480252D0601E03100641C2942B7
:20A3C00002D14E00B342F8D2002C09D440008B4203D35B1A0500012028434908641EF5D50E
:20A3E000002A00D0136072BC704780B50022FFF7DDFF02BD80B5002807D50022434218002B
:20A40000FFF7D4FF0100484202BD0022FFF7CEFF02BD002800D17047F0B58B185B1E0125EE
:20A42000072401220E002640B240521ED2B21C40641CA5406D1EEC43E4B2C908DD08431852
:20A440001E78A94204D11443E04330431870F0BDD74337431F7040190278E6431643067096
:20A46000691A491E03D0FF22581C02F007FBF0BD002800D1704770B58A18521E01250724B1
:20A4800001230E002640B3405B1EDBB21440641CA5406D1EEC43E4B2C908D508421816788C
:20A4A000A94203D11C433440147070BD33401370401903781C400470691A491E02D0501C97
:20A4C00002F004FB70BD002101E0491C4000002800D4FAD11F20401A70470278401C0B7847
:20A4E000491C002A01D09A42F7D0D01A704738B4012100220368001D002B0BD00468001D71
:20A500000C4202D04D466D1E64192260241D1B1FF0D0FAE732BC704738B472B6A54A906842
:20A520000021117162B6002823D00168002920D043694C699C421CD100E021000C68002CF6
:20A5400002D065699D42F8D072B603681469844200D11361026A13601A6201620A68026007
:20A56000002A00D01062086038200A00393212780A5462B631BC7047F8B500278D4C677012
:20A580000120207072B6E06B010004D08047E76367633820275462B602F09CFA0078CD2807
:20A5A00002D07D2002F09CFAA068002807D0C16B002904D009680A0001D040688847312060
:20A5C000205C002809D0A06838303021615C01702079002801D0FFF79FFFA068002805D0E4
:20A5E000017C002902D1416B491C41632069002826D002E02868206162B672B62569002D98
:20A6000041D02E7C002E3ED070070FD5E868216A411A012906DA280000F090F8287C00283C
:20A6200004D10DE0616A411A00D56062FB2030401028DFD1A86880684068007C0028D9D13A
:20A6400072B620E02069002804D0686921694969884218D3287C400710D5E868216A401A86
:20A66000012806DA280000F069F872B6287C002809D0E868616A411A00D5606262B62D68D1
:20A68000002D72B6DED1607900280BD12069002832D02069007C0028206911D080688068BF
:20A6A00040680DE06771206A8021C90540186062E169080001D02000884762B6E568DFE7DD
:20A6C000A060C06A0078CD2802D0782002F008FAA068C16B002904D049680A0001D0406820
:20A6E0008847A0683030017A3022A1543122A1540168491C016006E031202754302027546D
:20A70000A760277062B62000F2BD10B5294C2078401E2070207800280FD1606800280CD088
:20A7200072B606D001202070200002F047FA002020706078002800D162B610BD38B58168DB
:20A740001C4C002909D0226AC2600A684968002A00D051600A6000218160017C8907890F02
:20A76000017413D12169002911D1206101202178002906D12070200002F020FA0020207044
:20A7800000E060716078002800D162B631BD42694B699342E9D38142E8D09A42F6D1030020
:20A7A0001B68002BEED05D69AA42EBD18B42F7D1DBE7000038F2FF1F38B54169304C227873
:20A7C000521C227022000C3200E01A001368002B02D05D69A942F8D3036002621060002BC9
:20A7E00009D018625A698A4202D13921415C00E0002138228154017C002906D172B6FFF7E2
:20A800009DFF6078002800D162B6FFF77EFF31BD38B51B4C25782078401C2070200002F0CB
:20A82000CDF925706078002800D162B631BD10B502F0F2F912480121017002F04BF904001D
:20A8400002F04CF9021B203A012A03DBCD212000FFF7A5FD10BD80B509490A6A80180A78B9
:20A86000002A04D062B60A6A121A07D5FBE772B68968C86004200874FFF7CAFF01BD000006
:20A8800038F2FF1FF0B5C5B08948C0214901016088481021C9430164016860229143016067
:20A8A0008549F4320A604A6084490A6010210163026C114301640024820DEC21490204A8E6
:20A8C00001F082F904AD28002030FFF737FD00900027FF43B84200D0012428002430FFF75F
:20A8E0002DFD0090B84200D0012428003030FFF725FD0090B84201D1002C01D0FEF798FC2D
:20A90000002480225200FC21490204A801F05CF9281DFFF713FD0090B84200D001241035B6
:20A9200004262800FFF70AFD0090B84201D0012402E02D1D761EF4D104AD2035202628004F
:20A94000FFF7FCFC0090B84201D0012402E02D1D761EF4D104A8FFF7F1FC0090B84205D016
:20A960008549FFF742FD00904E2801D1002C03D0FC20400201F00FFA80225200FC21490249
:20A9800004A801F021F90498B8421FD14848806A01904748406A02904548006A03900022F8
:20A9A0000C2101A800F09CFA00906A467249FFF7FDFC00987E4940180090684604A9026845
:20A9C0000A608021490004A8FEF7CAFC45B0F0BD78487047784800684106C80F70477648E8
:20A9E00000688106C80F7047FF207047FF207047FF20704701207047FF2070472D480168CC
:20AA00006022914301602C48AA214900016041607047704770477047704770477047674845
:20AA200040210160C2681143C16005E06448402101600269114301616248AA214900016022
:20AA40007047704770475D4820210160C2681143C1601948F1E75A482021016002691143AF
:20AA600001611548E9E780B5FFF7EDFFFFF7F3FF01BD55484068704738B502000C00524DF4
:20AA800000202860012A02D12000FFF7D5FB6C6032BD0020704780B54C490978012902D150
:20AAA000FFF7C4FB01BD4A4901603021818001BD3880044094F00F4014B0044010C0044034
:20AAC00001B481B072B602F01BF9424800684249884201D2FEF764FBFA26F600AA27552593
:20AAE0003E4C20680C21014001D065606760FA20800001F01DFF761EF3D1C82620680C21D7
:20AB0000014001D065606760FA20800001F010FF761EF3D1C82620680C21014001D065602B
:20AB20006760FA20800001F003FF761EF3D10198401E0190E1D12A48016802220A43026081
:20AB4000FA26B60020680C21014001D065606760FA20800001F0ECFE761EF3D1214822492B
:20AB60000160FEE72148704772B602F0C9F81D481D490160FEE7000080969800042802D9CE
:20AB80000A38022801D8002070470020C0437047002802D11648102101607047002802D122
:20ABA0001448102101607047704770471248704700DB7D2EE40C000090F00F4088F00F4065
:20ABC00084F00F4018B00440ACFFFF1FD9150020006CDC022C0E0020B80B000000810440A3
:20ABE000406100400CED00E00400FA0510270000C8F00F40C4F00F40FF2F00200020704732
:20AC00000020704738B50400002501228E216846FEF7E6FA012C09D1684600784010204015
:20AC200004D002F030FB002800D00125280032BDF2B5070015001E007C480168874C21608C
:20AC4000002202600869804733002A000099380024682468A047F2BDF2B5070015001E007B
:20AC6000724801687D4C2160002202600869804733002A000099380024686468A047F2BD8F
:20AC800010B56A480168754C2160002202600869804720688068804710BD10B563480168F9
:20ACA0006E4C216000220260086980472068C068804710BD00E000BF694801680029FCD0AB
:20ACC0000020C0437047F7E7F6E7000080B5FFF7D3FE002801D100BF7BA0604908600020DE
:20ACE00002BD80B501005F480078FFF7EFFF002002BD80B5FFF7BDFE02BD80B5FFF789FE26
:20AD000001BD80B5FFF787FE01BD000038B5474C206800280CD1514D2868C068010000D0D3
:20AD20008047286820604069002800D160A02860FFF799FE31BD000038B53C4C2068002872
:20AD40000CD1464D2868C068010000D08047286820604069002800D155A02860FFF773FE9D
:20AD600031BD000038B5314C206800280CD13B4D2868C068010000D080472868206040695D
:20AD8000002800D14AA02860FFF75BFE31BD000038B5264C206800280CD1304D2868C068EA
:20ADA000010000D08047286820604069002800D13FA02860FFF733FE31BD80B5FFF72EFE76
:20ADC00001BD80B5FFF726FE01BD80B5FFF724FE01BD000038B5154C206800280CD11F4D56
:20ADE0002868C068010000D08047286820604069002800D12EA02860FFF72DFE31BD0000EC
:20AE000038B50A4C206800280CD1144D2868C068010000D08047286820604069002800D1FF
:20AE200023A02860FFF70EFE31BD0000840F002038B50D4C206800280CD1084D2868C06844
:20AE4000010000D08047286820604069002800D117A02860FFF7EAFD31BD000034F3FF1F59
:20AE600084000020D9150020840F002080B5FFF7D4FD01BD80B5FFF7B7FD02BD80B5FFF7EA
:20AE8000AEFD02BD80B5FFF7B1FD02BD80B5FFF7AFFDC0B202BD80B5FFF79CFD02BD80B5F0
:20AEA000FFF7A8FD02BD80B5FFF7A6FD02BD000031AC000059AC000081AC00009BAC000055
:20AEC0000000000000000000B5AC0000B7AC0000C7AC000000000000C9AC000000000000C6
:20AEE000F0B491B0030010000F226C463C3416000425F707FF0F7608002F02D037000F4EA9
:20AF00007E406D1EF5D12660521E241F002AEED51A7842405B1C1007800E6C462458100985
:20AF200060400207920E6C46A25800095040491EEED111B0F0BC7047000000002083B8EDF1
:20AF400070B50400034D2E780349FFF7BFFE2C70300070BDD915002040420F0080B5FFF710
:20AF6000D0FE01BD80B5FFF730FF01BD80B5FFF7C4FE01BD80B5FFF724FF01BD08B4024B6D
:20AF80009C4608BC6047C046A5F7FF1F38B4002B1FD10400503478300078002801D0636A2F
:20AFA00017E0206A00280CD0C500E4696419083C2568AA4201D363680BE0083C401EF7D1CC
:20AFC00007E0C0239B032068BE4A904201D1F0231B04CB600120087431BC7047F8B50E007C
:20AFE00004005034002332002100FFF7CFFF00220221200002F014FC0500207D010602205D
:20B0000002F070FC07003100052002F06BFC38436168A94206D0656006002900042002F00D
:20B0200061FC30430500207D000610210143022002F058FC010029430800F2BDF8B50E00DC
:20B0400004005034002332002100FFF79FFF00220221200002F0E4FB0500207D010602205D
:20B0600002F040FC07003100052002F03BFC38436168A94206D0656004002900042002F00F
:20B0800031FC2043002802D50020C043F2BD0020F2BDFCB583B007000E003C0050340A9D20
:20B0A000A80001D5012020762807000F02902068844988420BD1207E002801D0012200E0F6
:20B0C000039A029882403100380002F011FDFF231B042B40320021003800FFF757FF0B98E8
:20B0E000019002980090049B039A3100200002F00CFB0021217605B0F0BDD8B50EB482B074
:20B1000007003C0050340A98810001D5012121760107090F0191A74E0299B1424AD10199CC
:20B1200001228A40042A45D10399012942D10498FFF704F9009031003800FFF77FFF0028E1
:20B1400007D10099072002F0CDFB002804D502F0BDFB0020C0433DE002F09EFB0098400748
:20B1600022D50220FFF777FB0021032002F008FC00281DD0904E306A9621C900401801901E
:20B180008E4F6420FFF767FB6946002002F0F8FB002804D100983840B849884208D00198F9
:20B1A000316A401AEDD503E00021032002F0E8FB01200FE0FF231B040340029A2100380053
:20B1C000FFF7E4FE01980090049B039A0299200002F0EDFA0021217606B0D0BDF2B582B0CA
:20B1E00017001C00A649FFF7F9FE0028724E02D50020C04329E002980178052002F072FBBE
:20B200000021042002F0BCFB00200090356AC83501A9042002F0B4FB0198C00306D4306AB5
:20B22000281AF5D50020C04300900DE00021062002F0A6FB3900032002F0A2FB0298401CA7
:20B2400002903F1D641ED6D1009803B0F0BDF6B583B01C008A49FFF7C1FE0028564E02D5BA
:20B260000020C0432BE004980168062002F03AFB80277F02039801783943052002F032FB52
:20B280000021042002F07CFB00200090356AC83501A9042002F074FB0198384006D1306A03
:20B2A000281AF5D50020C043009007E00398401C03900498001D0490641ED4D1009805B09D
:20B2C000F0BD0000FF00010E70B582B004006C4E3100FFF783FE05000021042002F050FB6F
:20B2E000284305006946042002F04AFB0100294315D50020606531002000FFF76FFE0500DF
:20B300000021042002F03CFB04002C436946042002F036FB204302D50020C04376BD00982E
:20B3200000030BD5A549042002F0DCFA0021042002F026FB6946042002F022FB00998803F2
:20B34000C00F76BDF8B504004D49FFF777FE7920205CC000994E06433100072002F0C2FA2E
:20B3600002F062FB1448076ABF1C6946072002F007FB002802D50025ED4307E000988503B1
:20B38000ED0F03D10C48006A381AEED57920205C002809D0082086433100072002F0A2FA1D
:20B3A0000021072002F0ECFA7934002020702800F2BD00000CED00E038F2FF1FFF0F00000A
:20B3C0007CB50400CD07ED0F206DA249884218D1200002F0B3FB002802D50020C04376BD28
:20B3E000200002F0A5FB9C492000FFF727FE002807D40021072002F075FA002801D102F0E3
:20B400004BFAB0492000FFF719FE1F21072002F069FA1B492000FFF7E1FD0021042002F076
:20B42000AFFA6946072002F0ABFA01A9072002F0A7FAE800614E064300980107C90F8D426B
:20B4400003D03100042002F04DFA022086433100042002F047FA02F01FFAAB48006800288A
:20B4600001D0FFF78BFD02F017FA0021032002F087FA002801D47934257076BD77040000D6
:20B48000F0ED00E0F8B50400206D7249884218D1200002F053FB002802D50020C043F2BD12
:20B4A000200002F045FB6C492000FFF7C7FD002807D40021072002F015FA002801D102F073
:20B4C000EBF992492000FFF7B9FD9149072002F009FA9049072002F005FA02F0A5FA8E4E8D
:20B4E000346AA41C01276946072002F049FA002802D50025ED4306E00098450C3D4002D148
:20B50000306A201AEFD52D49072002F0EBF902F0C3F90021032002F033FA2800F2BD02B581
:20B5200082B069460F220A70012302AAFFF78FFE03B000BD70B582B00400784DBB4E00296A
:20B540000ED002F0B7F9002060653068A84214D26946012002F014FA0099012081430AE0E6
:20B560003068A84209D26946012002F009FA009801210143012002F0B5F973BD80B56349D9
:20B58000FFF75CFD02F050FA6946032002F0F8F9002002BD012908D9091F0AD0091F02D085
:20B5A000783904D007E0A2487047A24870471F2070470120704700207047000003005FA036
:20B5C000F0B583B005000F002C0050342068214988423CD10020019097492800FFF72EFD2C
:20B5E000002807D40021072002F07CF9002801D102F052F9914E0023320021002800FFF7EF
:20B60000C5FC0020009001AB01223100200002F0C7F80198C004840D641C01980001450C8F
:20B620006D1C01260320019A0240921C012191403E6038718800FEF746FFF8712800FEF72A
:20B6400042FF78712000FEF73EFFB8713E74002003B0F0BDFF00010E50EF00E0F0B583B00E
:20B6600005002C0050342068AE49884201D0002026E0AD4E0023320021002800FFF786FCC4
:20B680000020009001AB01223100200002F088F8012701984008384012D0A44E00233200BE
:20B6A00021002800FFF772FC0020009001AB01223100200002F074F80198000C074038008B
:20B6C00003B0F0BD30ED00E038B5046D954DAC4217D1049CA4000919CC79A2402024897924
:20B6E000611A8B4013431C009149FFF7A7FC002807D42100072002F0F5F8002801D102F009
:20B70000CBF8002032BD0000B00D0020F0ED00E00F005FA00D005FA038F2FF1FA6AE000007
:20B72000F6B585B005007C2A02D20020C0437AE00F46503768690190A86903907C2200218C
:20B740000598FEF72CFE28680090002801D1794800900098000E784CFF2808D0032801D05D
:20B760000E2804D100986F49884200D0734C287B69460872687B01061DD50021820701D5ED
:20B7800080218903420703D50A008021C9031143020703D50A00802109041143800603D446
:20B7A00008008021490301430598001D01670598783001210170A87B002804D0202802D21B
:20B7C00001248440641E059D2D1D0398042809D30198FEF7B3FDE8660198001DA866E96EC8
:20B7E00002F0A2FB059E2C3680204000FEF76BFE2021705420360520707005980060504882
:20B800006860504828600020E86028614E49A9606946097A39750121B975BC600099396031
:20B82000786006987C3807B0F0BD0000AC0D0020370000800100008084ED00E080ED00E0CB
:20B8400030B5B7B0050002216846FDF787FE6846018826A8FDF782FE68460088042804D39B
:20B8600026A8FEF76BFD040000E0324C5422002101A8FEF794FD019401A801210171002182
:20B880004171017316A8059031A00890402216A901A8FFF745FF01210598FFF74BFE642D33
:20B8A00012D0652D14D06E2D16D06F2D18D0792D1AD07A2D1CD07B2D1ED07C2D20D0822D2A
:20B8C00022D0832D24D026E001A8FDF77FFF22E001A8FDF7F3FE1EE001A8FEF731F81AE062
:20B8E00001A8FEF759F816E001A8FEF77BF812E001A8FEF787F80EE001A8FEF78CF80AE049
:20B9000001A8FEF791F806E001A8FEF796F802E001A8FEF7CDF800210598FFF70BFE37B005
:20B9200030BD0000FF00010E78ED00E014ED00E074EF00E0FF000003FF030000FF0F000091
:20B940005DB60000C1B50000C9B600000120704700000000C5DC0000EBDD0000DDB1000010
:20B960004FB20000C1B3000085B4000045B30000C9B20000000000001FB5000021B70000FA
:20B9800093B00000FBB000000000000095B500007DB50000000000000000000035B5000053
:20B9A0004DB9000018B4020000230020FF24A41CA24208D0754CA24205D0754CA24202D0E0
:20B9C000744CA24200D17448002900D00B6012BC7047042804DA54214843704908187047B3
:20B9E0000020704770B50600FEF79FFB050080204001854202DAFEF798FB0500002D25D07E
:20BA00002800FEF7A1FB04002A0021003000F369DB6A9847002816D4291A2000FEF7C3FB46
:20BA200034610020B0843062F069006800280DD0FEF77BFB0100F0690068814206DBFEF7FF
:20BA400083FB306270BD2000FEF7A4FB70BD10B55421484351490C18206900281FD0206A1B
:20BA6000002803D020002030FEF7AAFBA06B002803D0FEF78FFB0020A063E06A002803D0D4
:20BA8000FEF788FB0020E0626069002803D020001430FEF795FB10342000FEF791FB10BD6D
:20BAA000F8B50C00042825DA2168090E0025FF2900D100210E0221790E4354214143374A4E
:20BAC0005718FFF7C4FFFF20801C864208D02F48864205D02E48864202D02E48864200D1B0
:20BAE0002D4DE56154222100380000F06DF83800FFF778FFF1BD30B583B00400274800255F
:20BB00000195009313000A002100C4696468A04703B030BD10B582B0040020480093130035
:20BB20000A002100C469A468A04716BD11B581B01A4C01230A0001A92069E469E468A047A9
:20BB400016BD13B5154C012301AA69462069E4692469A04716BD80B510490869C969096AAA
:20BB6000884702BD80B50D490869C969C969884702BD80B5094A002102E080B5074A012116
:20BB80001069D2695269904702BD00000103000001060000010E000050B90000340E00201B
:20BBA000124207D08B0706D00B78491C0370401C521EF7D87047830706D00B78491C03708A
:20BBC000401C521EF9D1704770B4103A03D378C9103A78C0FBD2530701D318C918C001D587
:20BBE00008C908C0D20704D30B880380891C801C002A01D50B78037070BC704780B5810016
:20BC000009184900344A51180A78002A01D0897800E04978002902D0FEF7BAFF01BDFEF758
:20BC2000BDFF01BD012800DB704780B5810009184900294A511801224A700978002901D17A
:20BC4000FEF7A6FF01BD012800DB704780B5810009184900204A511800224A700978002958
:20BC600001D1FEF79BFF01BD012800DB704780B5810009184900184A51184A780123534086
:20BC80004B700978002901D1FFF7B8FF01BD012800DB704710B58200121852000E4B9A1879
:20BCA0000B8813708B88D380CB881381CB88002B08D08C88002C01D1002304E04C88002CB2
:20BCC00001D023000124938094700988002900D19180FFF793FF10BDC4FFFF1F7047FEE7C6
:20BCE00008B4024B9C4608BC6047C04659F6FF1F08B4024B9C4608BC6047C046B1F6FF1F5A
:20BD0000F7B588B0EFF31080009072B62E4C27688120400238408821C90101432160A021B8
:20BD2000090201432160002B10D0089880050DD10A98401E8612761C089D07D02800FFF761
:20BD4000CFFF8020C0002D18761EF7D109980190089802900A984010039001A8FFF7C8FFC5
:20BD60002760009880F310880A9A0999089802F0DCF8002801D10BB0F0BD0020FFF752FF24
:20BD8000124C2000FFF7FAF80020FFF75CFF2000FFF7F4F8F1E770B5EFF3108472B60A4DD8
:20BDA0002E688121490231408822D2010A432A60A02212020A432A60FFF792FF2E6084F302
:20BDC000108870BD000000000C3000F020A1070070B5EC2464020825EE012000FFF7DBFF03
:20BDE000A4196D1EF9D170BD10B572B6074C6178491C617008220021FEF7D1FA6078401E74
:20BE000060706078002800D162B610BD38F2FF1FF0B583B00020694608801424FEF7F0FE0A
:20BE2000002800D010240120FEF7ECFE002802D0200001240443FEF7E1FE002801D018204B
:20BE400084430122012100A8801CFDF7C9F968468078012802D0022806D00BE00422002109
:20BE600001A8FDF765FA15E00422082101A8FDF7B7F90FE08B480190102C0BD10122002186
:20BE80006846FDF7ADF968460078042802D26846012141700198844F3E000B360C2502AAEB
:20BEA0000A21FEF783FA029930313170761E6D1EF5D1FF20801C69464978002903D069468D
:20BEC000097808180CE0102C0AD0142C01D1001D06E0042C01D1401D02E080204001204325
:20BEE000788203B0F0BD80B5FDF785FB01BD10B50C00A007800F022801D0FDF77CFB6007AD
:20BF000002D56A480121017010BD7CB5FFF780FF02F076F903F014F8FEF770FE002821D1B5
:20BF20008024A40001AE0090002322000221012002F0CCF830705C4D00942B002C332200B2
:20BF40000221002002F0C2F8707001A803F0DEF85749002003F01AF900225649203528009C
:20BF600002F0CAFC0120FEF74DFE002801D001F0B1F94D48103002F0DDFE02F077F973BDE0
:20BF800080B5FEF712FE1420FEF765FCFEF70CFE01BD10B582B00C00474909680091002368
:20BFA00022000100002003F059F8A04204D00020FEF7F4FDFEF7D8FD13BD10B582B03E4C23
:20BFC00020680090012300220021002003F046F82168002003F0E3F813BD10B50C003649FA
:20BFE0000B6822000100002003F02DF8A04204D00020FEF7D3FDFEF7B7FD10BD38B5050070
:20C000000C002D480168002003F0D1F8002804D00020FEF7C3FDFEF7A7FD0020C04300903D
:20C02000002322002900002003F018F8002804D50020FEF7B3FDFEF797FD31BD10B50C0061
:20C040001D490B6822000100002003F031F8A04204D00020FEF7A2FDFEF786FD002010BDD9
:20C0600080B50A000100002003F02BF802BD80B5002003F040F802BD80B5002003F033F8D9
:20C0800002BD80B5002003F025F802BD80B502F073FC8007800F022801D1012002BD002015
:20C0A00002BD000040E201000CF0FF1FDB150020E7BE0000EFBE000008F0FF1F80B502F0E5
:20C0C0007AFD002802D08020800002BD402002BD38B5040072B6104D6878401C6870012046
:20C0E0002071206800280ED02878401C2870200003F088F8002804D16079012801D000200A
:20C100002071FEF702FB6878401E68706878002800D162B631BD00BF38F2FF1F70B5040077
:20C1200072B60F4E306A4518207900280CD12A004821200003F08AF8B068C068281A012812
:20C1400001DA012070BD72B66079012801D0002020717078002800D162B6002070BD00BF05
:20C1600038F2FF1F010088684A68801A01D5C96840187047010048688A68801A401E01D5B3
:20C18000C96840187047F2B504001500FFF7F2FFA84203DA2000FFF7EDFF05002E00A068B4
:20C1A000E16822685118091A37008E4200DD0F003A000099FFF7F4FCA068C0190099C91918
:20C1C0000091F61B2168E2688A18121A00D10800A060002EE3D12800F2BDF8B504000D00CC
:20C1E00003F076F88E4F381D03F0DAF86068E168226851180E1AB54200DA2E00002E03D0BB
:20C200003100FDF733F9AD1B002D03D029002068FDF72CF9AD192000FFF7A4FFA84203DAF5
:20C220002000FFF79FFF00E02800002810D00500E1682068411862688B1A9D4200DC2B00B6
:20C24000D2186260ED1A891A00D16060002DEFD1381D03F0C5F803F040F82000FFF782FF43
:20C26000050061682068E2688218521AAA4208DB012D02DB2A0003F0CBF8206860604019BD
:20C28000A060F1BDF0B583B0050016001C00089B0020019000942800EF697F68B847B042A1
:20C2A00002D00020C0432AE06879002826D06069FEF704F860612069FEF700F820611834C2
:20C2C000002618E02068FDF7F9FF20606068FDF7F5FF6060A068FDF7F1FFA060E068FDF7B4
:20C2E000EDFFE0602069FDF7E9FF20616069FDF7E5FF6061761C286B8642E3DB002003B04C
:20C30000F0BDF0B583B00500002708216846FDF725F9019801285FDB0024424EAE422DD0E6
:20C32000F06A00282AD0B06B002827D030682968884223D13079297988421FD1042229000C
:20C3400008313000083001F0F0FD002816D15420444334480419A06B002802D0FDF71AFFA9
:20C36000A763E06A002802D0FDF714FFE762202200212C342000FEF712F803E0641C543650
:20C38000042CCBDBAC6B002C0CD02000FDF702FFE86AFDF7FFFE2022002128002C30FDF775
:20C3A000FEFF0024019841000E18F6003000FDF7CBFEE86232000021FDF7F1FFE86A00287E
:20C3C0000CD0FDF7B2FE052100F040FB0600FDF7BBFE040019D10127FF4306E00127FF4331
:20C3E000002C07D02000FDF7D5FEE86A002801D0FDF7D0FE202200212C352800FDF7CFFF98
:20C400003800FDF798F803B0F0BD00986863019828636E64AC63EC632C6448352F70EFE7C7
:20C4200070000020340E0020F1B590B0614E3068002804D101203060301D02F09CFF1098AD
:20C44000383002901098006B002800D124E102980068002800D11FE1109848300078002816
:20C4600000D019E110980068000E082803D00C2801D00F2801D1022000E0002000060E90FD
:20C480000298FFF777FE042849DAFDF74EFE05900298C0680599884200D3FDE00846FDF757
:20C4A00053FE040000D1B4E1301D02F079FF0298416882688A420AD3521A2000FFF770FB47
:20C4C0000298806802994968401A201817E0C26803689A18551A2A002000FFF761FB029819
:20C4E00001688068421A6019FFF75AFB0298C06802998968029A5268891A61180818029950
:20C50000886002994C6002980599C16002980068FDF740FE02980460301D02F061FF10981A
:20C52000006B41000D18ED0018352800FDF70CFE040000D199E00E98009023002A00109851
:20C54000416BFFF79FFE00280DD4207853280AD16078452807D1A078472804D11098006B19
:20C560002169814203D02000FDF714FE51E12100183103911099C96A0191002200920128FA
:20C5800043DB002200258E68002E039B14D19B68002B34D0A04DAB4200DBD243039D2D695D
:20C5A000AB4201DA0022D243039DED68AB4259DB1EE000BF700000205B684F68BB4200D0D2
:20C5C000D243039B9B68B34201D00022D243039E3669B34201DA0022D243039EF668B3426D
:20C5E00001DA0022D243039B1B680E68B34200D00125002A35D1002D01D00122009218317B
:20C60000039A18320392401EBBD1206941000A18D200210018310198FFF7C2FA2000FDF72D
:20C62000B9FD009800282DD0206941000C18E4006846FF210174029806A96CC86CC106A81A
:20C64000FFF798FD844204A811DA4470200A04A98870032206A8FFF796FD22001098C16A1E
:20C660000AE0CAD52000FDF795FD0020CFE0002141708170032204A906A8FFF784FD029868
:20C68000089981601098C06A039000270298FFF771FD0400042C01DA0120B8E00398406883
:20C6A0000A900399096941180B91039AD26880180C90039880680D900398183003900D9897
:20C6C000002800D19CE00F919748844200DB441EE41E0AA8FFF746FDA04203DA0AA8FFF70F
:20C6E00041FD0400002C00D593E000D188E0029806A96CC86CC16846077404A844702012E6
:20C7000004A98870032206A8FFF73DFD08980999069A5118091A25008C4200DD0D000B9982
:20C720000D9A0A9B9A18521A954200DB15000022019200900E9B2A001098C6697668B04704
:20C740000600AE4265D106A8FFF714FDA84203DA06A8FFF70FFD00E028000999069A5118CE
:20C76000089BCA1A904200DC02009B180893801AC91A01D1069908910028EED10AA8FFF71E
:20C78000F1FCA84203DA0AA8FFF7ECFC00E02800002810D00D990A9A51180B9BCA1A904236
:20C7A00000DC02009B180B93801AC91A01D10A990B910028EED1641BA8D1002E29D4029818
:20C7C000089981600B980F99884219D07900C919C900109A526B8C1828340A99401A0590BC
:20C7E00010984079002802D005A8FDF759FD05A800900E9B042221001098C469A468A047F2
:20C8000000207F1C1099096B8F4200DA3EE711B0F0BD0020C043FAE70100000170B584B0A3
:20C82000040042480168002904D101210160001D02F0A1FD012102A8FFF700FC6846007AED
:20C8400005280CD801A1095C8F4400BF061C24347A8E0320009004216846FCF7F6FD5034BC
:20C860000120207004B070BD2000FFF74AFDF6E720003030012101760020FCF75CFEEEE791
:20C880000025042101A8FFF7D9FB260038363068002806D0206B002803D03000FFF762FCA7
:20C8A00005002800FCF7ECFD002D09D00198002806D00146A94200DD29003000FFF78DFCEB
:20C8C000FCF73FFECBE72100383100200A68002AD3D00800FFF746FCCFE704216846FFF7CE
:20C8E000ADFB250038352868002815D0206B002812D02800FFF736FC00990029E0D00028E2
:20C900000DD00E46864200DD060031002800FFF764FC0098801B009000980028D0D0FE214A
:20C920000098FCF7B5FDCBE7030001007000002010214843401EFDD57047000000000000D1
:20C94000F0B444464D4656465F46F0B46446754630B40A9FB9460BE0F0B444464D465646F8
:20C960005F46F0B46446754630B42C4F3F68B94682468B4694461F4680B401246501A601C6
:20C98000274906244B69A343984633439E4654462078641CA2465C462278641CA3461202D8
:20C9A00010430822082F00D53A46BF1A440802D244464C6106E00823C405E40FE340CE5030
:20C9C00074464C614C4600BF641EFDD54D604C46641EFDD58D6040080C69A409E407204313
:20C9E000521EE3D1000E64462070641CA446002FCDD104BC520705D0520F52420832D04067
:20CA0000641E207044464C6130BCA446AE46F0BCA046A946B246BB46F0BC7047ACFFFF1F5D
:20CA200080F00FF8CA0F00D0494203105A400DD004B500D3404200F009F8009AD20701D37B
:20CA40004942124200D5404204BD0000094210D088420BD30122002300185B418B4200D372
:20CA60005B1A5241F8D319001000704701000020704708B502F0E0FC08BDFEE71206130AC1
:20CA80001A43130C1A4300BF094205D0830705D00270401C491EF9D170470000130030B4D2
:20CAA00014001500103902D310393CC0FCD2490700D30CC000D504C0890002D30280801C18
:20CAC000002900D5027030BC704700000022DBE70022E3E700487047E015002068467047FA
:20CAE00006490A78521C0A7000224A7062B60449087008780028FCD1704700BF38F2FF1F91
:20CB0000D415002038488168002901D108B00ED0EFF30982283A0368F8C243464C46554668
:20CB20005E4678C2734608C2283A83685A60FDF723FD816800291CD04A68143278CAB34648
:20CB4000AA46A146984608CA9E46283AF8CA27490B60143282F3098870460421084386462D
:20CB600090692349814203D02248034200D162B67047214821490968401A80F30888204961
:20CB8000C161204981610621C9438E46704701BC20461D498E4600BDFEE71C48006817493F
:20CBA0000968401A20380721884380F3088800210D48417062B600F012F8FEE703680CB413
:20CBC0000021417062B61249124A0A6000BF72B60CBC036070470E490E4A0A6070470C495C
:20CBE0000C4A0A607047000038F2FF1F38F2FF1FCECB000000FF0000C0170020D458010072
:20CC000000000001F1CC000099CB00000080000004ED00E000000010EFF3108072B60449AA
:20CC20000A68FF231B0413430B6080F31088704720ED00E0354800687047354800688021AF
:20CC4000C9040840704710B5334C2078401C207002F0F4FB72B62078012804D160680028B1
:20CC600001D0FFF7B8FF2078401E207062B610BD70B586B0684600BF2CA11422FEF7A4FF68
:20CC800072B6254C6078401C607002F04CFC214D2868FA218900FFF7D9FE80214904884296
:20CCA00025D21E491E4A1040401E48601D4883691340C02636061E43866100238B60072312
:20CCC0000B601949016081690A40802109061143816128680090684602F0B6FC6078401E64
:20CCE00060706078002800D162B606B070BDFEE730BFFDE70B4880210902016000207047A9
:20CD000008480021016000207047000018E000E004ED00E054F6FF1F38F2FF1F10E000E041
:20CD2000FFFFFF0008ED00E00080000000000000E80300000000000035CC00003BCC0000AE
:20CD4000F8B50024534D2E001F68B74208D1E3001B199B00EB181B6A5918FCF741FA03E01F
:20CD6000641C2436032CF0D30020F2BDF1B582B00E001700484CA06D002843D1207800287E
:20CD800001D1002E3ED1002B20D01968087800281CD0032208316846FEF716FF002069466F
:20CDA000C87003220B78202B00D10870491C521EF8D12500203505E06946FDF7CAFA002873
:20CDC00004D02D1D28680028F6D11BE0A148006A2065A148A14901603A003100029802F0B8
:20CDE00025FE002810D502F0D6FE002802D00120A06502E0A06D002804D02078002801D1A0
:20CE000001202070002005E02178481E8041C00F0121217003B0F0BD70B504000E00002063
:20CE20008F4D28706421E964A86503F018FD1C223100E000001B80002818001DFEF7B0FEAD
:20CE400070BDC200101A8000854A1018C2680A60008A8880704700E000BF8148806C1060A1
:20CE60000120704780B50800110072B67C4A6423D36462B603F066FBC00F02BD80B50800A9
:20CE8000110072B6764A6423D36462B603F012FCC00F02BD340C002068F3FF1F0120704783
:20CEA00070470000F0B589B06E4803F03DFB402003F03DFB022003F03DFB6B4803F00DFB76
:20CEC0006A4803F00DFB602200216948FDF767FA0020019000F0D7F9654900BF65A20A60AD
:20CEE00067A24A6096228A600126002811D1084689A101618DA1416136218161022600BFE2
:20CF000098A003F0D8FA3100594803F0ECFA09B0F0BD5348406D00281FD50021C9438842A8
:20CF200003D0FE21C943884217DA51498FA20A6191A100E008314A680B68834202D1002AD0
:20CF400003D101E0002AF5D1A5A249484261104603F0C6FC4649886102266C220021C1484E
:20CF6000FDF71DFA0024C04F33E0039880218901884267D2049980229201914262D2059A1F
:20CF800089188022920191425CD2CF490D1A1D2D00D31D25E10009198900B24A511800919A
:20CFA0002A00CA4941180098FCF71AF90098002141550498C54940180099086230012C4943
:20CFC0000818009901600021416005998160641C761C80208001C01B102833D3062E31DA6B
:20CFE000032C2FDA1022390002A8FCF7F9F810370298002826D0B6498842B6D0891C884243
:20D00000E7D103988021890188421BD2049980229201914216D2059A891880229201914206
:20D0200010D2A9490D1A0B2D00D30B252A00A749411806A8FCF7D4F806A800214155012054
:20D040000190C6E70198002800D158E706A803F032FA58E738F2FF1F880F00202C58010031
:20D0600068F3FF1F4555000041CD00006DCD0000D40B00205365676765722E68746D6C0016
:20D080003C68746D6C3E3C686561643E3C6D65746120687474702D65717569763D22726505
:20D0A00066726573682220636F6E74656E743D22303B2075726C3D687474703A2F2F77775B
:20D0C000772E7365676765722E636F6D2F4E6F726469634F422E68746D6C222F3E3C746917
:20D0E000746C653E5345474745522053686F72746375743C2F7469746C653E3C2F68656110
:20D10000643E3C626F64793E3C2F626F64793E3C2F68746D6C3E00004E6F466C61736843A2
:20D120006F6E6669672E7478740000004E6F2076616C696420564D534420636F6E66696771
:20D1400075726174696F6E20666F722074617267657420666C617368696E6720666F756E7B
:20D16000642E00004A4C494E4B0000006661696C2E74787400000000FFFFFFFFE0D10000CE
:20D1800000FFFFFF90530100FFFEFFFFB0530100FEFEFFFFE0530100FDFEFFFFF453010040
:20D1A000FCFEFFFF14540100FAFEFFFF24540100F8FEFFFF44540100F6FEFFFF6454010067
:20D1C000F5FEFFFF78540100F3FEFFFF94540100F2FEFFFFBC540100F1FEFFFFD8540100A0
:20D1E000556E737065636966696564206572726F720000000026704C64271FE0E06C0A387C
:20D20000E0640A20FDF727FBE06C0128F6DA02F0A7FC02F0C0FC606501F017FD02F0BEFC8C
:20D220002670E764A66503F01AFBFA208000FDF712FB01F01BF8280003F05AFB2500E435AD
:20D2400064212800FEF76AFF0028DDD020780028F4D05A48006A216D401A59498842EDDB42
:20D26000D2E70000340C002008080000032402E0322003F078FB01F07FFB20400228F7D107
:20D2800004F0D2F9F7E700B583B0042251026846FBF7A6FF0098002802D04A49884201D388
:20D2A00000200EE0042209496846FBF799FF464801900422694601A8FDF75FF8401E8041A9
:20D2C000C00F03B000BD0000FC1700000408000001777553F0B591B03C48FCF735FF060019
:20D2E0008020C000FCF730FF0500334C8027BF003800FCF729FFA064002E04D0002D0FD15C
:20D300003000FCF747FF002D02D02800FCF742FFA06C00284DD0FCF73DFF0020A06448E07D
:20D320000028EDD00097002300220221012000F0CDFE6946087300972300EC3300220221E5
:20D34000002000F0C3FE03A9487003A804F0CCF803F085FA3022002104A8FDF720F800BFD9
:20D360002AA004901A48079004A8078223A00F9004A804F00CF96420E0642000E430FEF729
:20D3800033FD02200290400201900095114B052212A12000A03004F03BFA022002900B48EB
:20D3A000019000960C4B042211A15C34200004F02FFA11B0F0BD000068F3FF1F38F2FF1F1B
:20D3C000E903000001180000564D5344DC05000045550000F5D100006DD200005553422084
:20D3E0004D534454696D656F75745461736B0000555342204D53445461736B006853010092
:20D40000705301007C5301008453010019CE000043CE000059CE000065CE000057CE000029
:20D420007DCE00009DCE0000A1CE0000F4B584B005000E001F0000200290B80701D1012054
:20D440000290287E421E9241D20F0221280000F0E7F90400287D0106022000F043FA0090D6
:20D460003100052000F03EFA009908436968A14206D06C6005002100042000F033FA284322
:20D48000002856D100F0D0FA002852D10498022847D3441E0A9E0298002826D0002E07D091
:20D4A000F068B168401A844200D82000009000E0009400253900072000F062FA002836D1DF
:20D4C0003F1D6D1C00988542F4D3002E09D0B06800994018B060F168884202D33000316860
:20D4E00088470098241AD9D11BE001A9072000F047FA00281BD101983870010A7970010C8A
:20D50000B970000EF8703F1D002E08D0B068001DB060F168884202D3300031688847641EB3
:20D52000E3D101A9032000F02BFA002804D000F0CDF90020C04304E001993800FCF7F5FEE4
:20D54000049805B0F0BDF5B583B00E001C00007E421E9241D20F0A9F3900039800F060F96E
:20D5600005000398007D0106022000F0BBF900903100052000F0B6F900990843039949680B
:20D58000A94208D003994D6000902900042000F0A9F900990843002835D100F045FA0028A7
:20D5A00031D10498022828D3451E0120B840029068460321C91B017001A9072000F0E0F9D9
:20D5C000002802D000F082F91DE001986A4612783240D100C840019001982070641C002F62
:20D5E00003D00198000A2070641C0398007E002801D1029836186D1EDED101A9032000F0B3
:20D60000BFF9002802D00020C0430FE001980321C91B3140C900C840019001982070641C29
:20D62000002F02D00198000A2070049805B0F0BDF3B583B015001C000A9F012F01D1924827
:20D6400004E0022F01D1914800E0012001900398007E421E9241D20F7910039800F0E0F85F
:20D6600006000398007D0106022000F03BF900900499052000F036F9010000980143039856
:20D680004068B04209D00398466000913100042000F028F901000098014300290CD1A00755
:20D6A00010D1042F0ED12168072000F01BF9241D002804D500F00AF90020C04323E06D1EDD
:20D6C000F1D119E02178022F0CDB0A00607801021143032F06DB0A00A0780004E178090604
:20D6E0000143114301984143072000F0FBF80028E0D4E4196D1EE5D100F0CEF80021032057
:20D7000000F03EF9002005B0F0BDF9B581B00D001600807D002802D10020C0433EE00027FE
:20D7200008980890099809900BE02000089988400199097E002900D12D1802990818029056
:20D74000361B002E29D001988068A8430899C840401C0199097E002901D0340003E034007A
:20D76000864200D904000898022808DB09980090029B220029000198FFF758FE06E00090E3
:20D78000029B220029000198FFF7DDFE002801D5070002E03F18A042C7D0380003B0F0BDE8
:20D7A00010B582B0049C0094FFF740FE16BDF9B583B00D00160000270A980A9001200A990C
:20D7C000884001900CE03F190A99200088400399097E002900D12D18049908180490361B1D
:20D7E000002E1AD003988068A8430A99C840401C0399097E002901D0340003E0340086426C
:20D8000000D9040001980090049B220029000398FFF70EFF0028D6D50700380005B0F0BD06
:20D8200078B403681A4CA34201D1012300E0002380256D04C468E60201D48225ED0526024D
:20D8400003D52E0080252D053543660203D52E008025ED043543A60203D52E008025AD04F3
:20D860003543240305D5007C002802D12800094D0540002B03D128008025AD0505432943C3
:20D880001001084372BC70470101010101000100FF00010EFFFFFFF380B56846FF2141708F
:20D8A00000210170082300AA921C00A9491CFCF7B7FC01BD00B583B030236A46564900BF98
:20D8C00075A0FCF7ADFC03B000BD000000B583B030236A46504900BF71A0FCF7A1FC03B090
:20D8E00000BD0000F0B58FB0002200240B0C4B401D0A5D402B096B409D085D4003916B08B3
:20D900006B40D907C90F03AB1971444F3D6A6435434E6946305C08704A7009E084235B00B0
:20D9200005AA00BF69A100BF5FA0FCF779FC641C0D2301AA310008316846FCF771FC01A8CD
:20D9400040784007400F012808D1212301AA1036310003A8FCF764FC00200FE0022808D002
:20D96000042802D1FFF7A6FF01E0022CD6DB002003E0386A281ADBD50120C0430FB0F0BD26
:20D98000F2B58EB00021002502AA1171254F01AA385C107051702148066A643608E0842338
:20D9A0005B0004AA49A100BF3FA0FCF739FC6D1C0D236A463900083101A8FCF731FC68465C
:20D9C00040784407640F012C13D1C006840F21236A460A37390002A8FCF722FC0E98002870
:20D9E00004D00098800004430E98046000200FB0F0BD022C09D0042C02D1FFF75BFF01E023
:20DA0000022DCCDB0020C043F1E70448006A301ACED50120F7E7000060F3FF1F38F2FF1FDA
:20DA200048F3FF1F38F3FF1F80B500210720FFF7A7FF02BD00B58BB084235B0001AA00BF10
:20DA400022A100BF18A0FCF7EBFB69460020FFF797FF002811D469460120FFF791FF00985D
:20DA6000B22101400BD0FFF725FF69460120FFF787FF0098A021014001D0012009E0A0211B
:20DA8000C90500910120FFF72DFF401E8041C043C00F0BB000BD000081C003000000000037
:20DAA00081E0030000200000FFFFFFFFFFFFFF9EE7FFFFFFFFFFFFFFB6EDFFFFFFFFFFFFCE
:20DAC000FF0000A50000000000000000FFFFFFFFFFFFFFFFFFFFFFFFFFFFFFFFFFFFFFFFB6
:20DAE000FFFFFFFFFFFFFFFF00000000F0000000F8B403008818401E1F22D24311400240A8
:20DB0000501A4209521C49090124C9B2C8081D182C20285C01264F077F0FBE4006432C3568
:20DB20002E70491C521EF0D14E331C70F1BC704700B520212C30FEF7CBFF00BDF1B588B094
:20DB40004E300078002800D1B8E008984E300021017008988168080000D1AFE00898006895
:20DB60008847002800D1A9E008984268100007D008991831089800689047002800D59AE0E3
:20DB800008980169080005D0089800688847002800D590E00020039008980190012405E06C
:20DBA0000398401C03900198001D0190039808998969884276DA0198007F022803D003280C
:20DBC00001D00428ECD10198C07F08994D310978401A0490002008994C310978019A527FFA
:20DBE0008A4200D2881A00210291049901228A40069201218140059118E00898C6683000A0
:20DC00000AD0039800902B00029A0899183108980068B04700284ED46D1C0198817F0120C2
:20DC200088408542E9DB0298401C029002990198427F012090408142B2DA08460499884021
:20DC400008994C310A7801219140491E0140002205980128E7DB03460800069D012D0CDBD6
:20DC6000C608089FBE192C36367847077F0F3E41264002D1401C6D1EF2D1921910D10198E5
:20DC8000407F049D45190120A840081808994C310D780121A940491E01405B1EC3D0DBE779
:20DCA0000025BAE708984169080007D0089800688847002802D50020C04300E0002009B0C3
:20DCC000F0BD0000FDB584B00D0014469549194002910C9E0D980D90E80715D5002C13D0AC
:20DCE0000D9801900298009033000122290004980069049FFF693F6BB847002873D4241ADF
:20DD000001286ED1761C6D1C0698400057D4A80718D5022C16D30D9801900298012101438E
:20DD2000009133000122290004980069049FFF693F6BB847002856D44100641A012850D1BF
:20DD4000B61CAD1C069800281CD4042C1AD3A00803900D980190029802210143009133001F
:20DD6000039A290004980069049FFF693F6BB847002838D48100641A0399884231D1880001
:20DD800036182D18022C1AD3600803900D98019002980121014300913300039A290004987E
:20DDA0000069049FFF693F6BB84700281BD44100641A0399884214D1480036182D18002C1E
:20DDC0000FD00D9801900298009033002200290004980069049DED692D6BA847002802D405
:20DDE000241A0598001B07B0F0BDFDB584B00D0014464C49194001910C9EE80713D5002C4F
:20DE000011D0009133000122290004980069049FFF697F6BB847002800D581E0241A012853
:20DE20007CD1761C6D1C0698400067D4A80716D5022C14D3019801210143009133000122CC
:20DE4000290004980069049FFF697F6BB847002866D44100641A012860D1B61CAD1C0698EC
:20DE6000002830D4042C2ED30498C069876B38000FD0019800280CD100903300A208290043
:20DE800004980069B84700284AD48000241A2D183618A008029016D0019802210143009136
:20DEA0003300029A290004980069049FFF697F6BB847002834D48100641A029988422DD1DF
:20DEC000880036182D18022C18D36008029001980121014300913300029A29000498006987
:20DEE000049FFF697F6BB847002819D44100641A0299884212D1480036182D18002C0DD02E
:20DF00000198009033002200290004980069049DED696D6BA847002802D4241A0598001BA3
:20DF200007B0F0BD0000FF3F704718B402E0401C491C521E002A09D00B7804789C42F6D003
:20DF400002D20020C04302E0012000E0002012BC70470000F9B583B00D0017000101081A19
:20DF60008000A5490E18A548C030009080698047B079012801D1022482E0A048807A8007DB
:20DF8000800F02287BD1306900280FD1707EC107C90F684601710A980A90002D33D1002F91
:20DFA00031D1002831D1706A002801D0032467E0002401252D193A1B72613561B076002060
:20DFC000F07600980088401C009908803081307E002807D129000398009B1B69DB6A9847D8
:20DFE000012030760A9802284BDA049800283BD00146039802F0A0FC002838D0002103983E
:20E0000000F06AFE33E0002F02D16846012101713A00290030001C3000F03AF90400381BF8
:20E0200004D00A98012815D1002C18D068460079002826D0306A716A401A3188884220D3BD
:20E0400002200A90002069460979002919D000220025B1E700200A990229ABD1F3E73188C5
:20E06000B942A7D20F00A5E7039802F05EFC70693C1A6248807A8007800F022801D00024A2
:20E08000E4430098C0698047200005B0F0BD18B401002031447F641E012C05DB0A0008329B
:20E0A0000CCA0CC1641EF9D1417F491E417711BC704738B50C00856B04E0A96820006A683E
:20E0C00090472D68002DF8D131BD7047FFB583B04A4FD020385800900026387808285BD276
:20E0E000694608710101081A800043490D180098C36C0C980C90180005D00C9A6846017CDE
:20E10000007B984705E06846017C007B009A52689047040040D0FF2C3ED03C2200212800FB
:20E12000FCF73DF96946097BC901214369716846007C287168460079009949698847060071
:20E140006846007B002803D10C98B04200D8060000F028FDC2B26846017C300000F0CCFC8A
:20E1600028806846808A68806846007B002803D02148C068E86003E00698E8610C98286262
:20E1800038780600401C38708A20400061006A46127B891879180E54300007B0F0BD4106CE
:20E1A00001D1002070470107C90E000600D5491C8A204000724A5118085C70470101081A49
:20E1C00080000D490818407970476D48817A8807C00F7047F8B5094FD0203C580125064E11
:20E1E00003E03000A16888476D1C3C3638788542F7DBE0688047F1BD74070020540900201B
:20E20000F8B50020C04300905D4C9C22520000212000FCF7C4F801272770C320322121548B
:20E22000B74DF022520000212800FCF7B8F802F06BFB03F029FBD0202658383020180168A4
:20E24000002901D1AF490160706D010000D080470020716988472880326C100002D0694655
:20E26000052090470098E8606772F1BD38B5444CD0202558286880472A6C100003D0210060
:20E280000831022090471020A0722869804731BDF2B504001500002621E0002924D0E06878
:20E2A000411862688A4200D90A00171AAF4200D92F003A00216809180098FDF771FCED1B7D
:20E2C000A068C01BA060F6190098C0190090E068C019E0606168884201D10020E060A1681C
:20E2E000002DDAD1002901D10020E0603000F2BDF2B5040015006068A168461A1CE0E068D7
:20E30000A16840186168884200D3401A4219914200D911000F1AAF4200D92F003A000099CF
:20E3200023681818FDF73CFCED1BA068C019A0600098C0190090F61B002DE0D13000F2BD3E
:20E3400010B500F0FAFC80B500F0FDFC10B582B0002B02D50224002300E0012400F0EFFCD2
:20E3600080B5674B18625962012058779A7600201883BA49D0310968096B884701BD000050
:20E3800054090020F7B504001F00B44EB07A8007800F022801D0002008E02001001B800030
:20E3A00057490D18A879002802D00220C0433DE0C036B0698047687F00281FD0C100691825
:20E3C00018314A680B689B18019CA34204D1029810184860AF7625E0032802D10324E443E5
:20E3E00021E008310C6002984860687F401C6877AF763088401C3080288113E02900203114
:20E40000019808600298486001206877AF763088401C308028812869002803D120003169E0
:20E42000096B88470024F0698047200003B0F0BDF2B582B004002001001B800030490E189D
:20E44000864D2800D8300190006800277179090631D50097002580473069002802D1707F94
:20E46000002820D037770298002819D00146200002F062FA002816D03069022800DB451E67
:20E4800030002030717F012905DB4268AD180830491E0129F9DA0021200000F01DFC02E0CB
:20E4A000200002F042FA019840688047002D23D00120009020E080473069002818D002982B
:20E4C00000280BD00146200002F036FA002808D00021200000F000FC012702E0200002F067
:20E4E00024FAA87A8007800F022801D00027FF430198406880470097009803B0F0BD0000CB
:20E5000074070020CBE00000F8B504000F002001001B800052490D1800265048D830009023
:20E5200000688047687F032814D3002F01D5012610E001202877002F07D03900200002F086
:20E54000FBF9002804D0012602E0200002F0EDF9002028770098406880473000F2BDFEB572
:20E5600004000F001500089E002E02D5FFF70AFF4EE06846037A2A0039002000FFF702FFF6
:20E580000321C943884206D131002000FFF7BCFF0028EED03BE000283AD401960027200192
:20E5A000001B80002E490E182C48D8300090006880473069002802D1707F002820D037779F
:20E5C0000198002819D00146200002F0B5F9002816D03069022800DB471E30002030717F09
:20E5E000012905DB4268BF180830491E0129F9DA0021200000F070FB02E0200002F095F9D6
:20E60000009840688047AF4201D2E81B00E0002003B0F0BD42001018C000104A101841637C
:20E62000704742001018C0000C4A10188163704742001018C000094A1018C1637047074910
:20E640000A00C2321378032B06D29B00C918C43108601078401C10707047000054090020BA
:20E6600074070020F2B582B0060015003001801B8000AE490C18002E12D100249D4E37004D
:20E68000C2373878844261DAA0003018C4300268100002D0290002989047641CE4B2F0E721
:20E6A000E068002803D029000298E268904701200090206900282CD061698D4201D22F003A
:20E6C00000E06769002F0DD03A000299FDF768FAED1B0298C01902902069C019206160699A
:20E6E000C01B60616069002802D0A07E002810D0300002F013F900272761607EC00706D439
:20E7000030007C49D0310968896A8847277609200090002D16D02A00029920001C30FFF740
:20E72000E7FD617EC90702D5218888420AD2207E002807D030006F49D0310968896A884767
:20E740000020207600992000FFF7B3FC03B0F0BDF8B506003001801B800074490D18687F7D
:20E76000002874D0002E02D0296900296FD10021E9762F0020377968002904D1022802D34E
:20E780002800FFF784FC5B48D03003681C6D20001AD0288B00906B463A00697F3000A0470D
:20E7A000040000982883601C2861260003E0361A2800FFF76CFC7868B042F8D3801B78601E
:20E7C0003868801938601FE07C682888844200D90400601C28612200396830005B6B984795
:20E7E0007868001B7860386800193860002C03D02988481E204001D0002010E02E8B2000C5
:20E80000FEF724F9301828836869002808D0298B002905D02A885143401E084000D1288308
:20E820007868002813D1687F022803D32800FFF72EFCF1BD002C08D0288B002805D0A87E35
:20E84000002802D00020A876F1BD00206877F1BD38B504002001001B800034490D18002CAA
:20E860000DD0286902280ADB0020C04328610421E87E002800D106212800FFF71AFC002070
:20E880002861687F00280CD02000FFF761FF687F032818D2287F002815D0200002F03EF896
:20E8A00031BD20001349D0310968896B8847002C07D0200002F032F840212800FFF7F9FB07
:20E8C00031BD03F036FC31BD80B50201121A9200164B9A189171074AD0321268126A90470C
:20E8E00001BD80B50121FFF7EFFF01BD0149D031086070475409002070B504000E0015002E
:20E900000C220021FBF74BFD6660A560AF4801680A0000E01268002A03D0A242FAD1012012
:20E9200070BD21600460002070BD00007407002010B40401201A8000AB4C20184A608B6096
:20E94000826B0A60816310BC704710B5A748817A002101730122A44B423302E01970521C55
:20E960003C330478A242F9DB817A102001400820084300F014F810BD9C48807A704780B582
:20E980009A48817A0120084300F009F801BD80B59648817AFE20084000F001F801BDF0B5BF
:20E9A00083B00700914EB47AD02030580190BC4249D0A00719D4B80717D501256846057068
:20E9C000FFF708FC07E000212800FFF77DFF280003F0BAFC6D1C30788542F4D30198026C04
:20E9E000100002D0694600209047A0070BD5B80709D46846002101700198026C100002D043
:20EA00006946002090479A204000345806E06268100002D03900A06890472468002CF6D1A1
:20EA2000B772B07A062108420DD0012408E00021200000F051F9200000F0DAF8641CE4B2B5
:20EA400030788442F3DB03B0F0BD01000020674A927A9207920F022A05D10801401A80001D
:20EA600061490818406A704738B505005F4CD834206880472801401B80005B490818016941
